{
  "contractName": "DaoGovernor",
  "abi": [
    {
      "inputs": [
        {
          "internalType": "contract IVotes",
          "name": "_token",
          "type": "address"
        }
      ],
      "stateMutability": "nonpayable",
      "type": "constructor"
    },
    {
      "inputs": [],
      "name": "Empty",
      "type": "error"
    },
    {
      "anonymous": false,
      "inputs": [
        {
          "indexed": false,
          "internalType": "uint256",
          "name": "proposalId",
          "type": "uint256"
        }
      ],
      "name": "ProposalCanceled",
      "type": "event"
    },
    {
      "anonymous": false,
      "inputs": [
        {
          "indexed": false,
          "internalType": "uint256",
          "name": "proposalId",
          "type": "uint256"
        },
        {
          "indexed": false,
          "internalType": "address",
          "name": "proposer",
          "type": "address"
        },
        {
          "indexed": false,
          "internalType": "address[]",
          "name": "targets",
          "type": "address[]"
        },
        {
          "indexed": false,
          "internalType": "uint256[]",
          "name": "values",
          "type": "uint256[]"
        },
        {
          "indexed": false,
          "internalType": "string[]",
          "name": "signatures",
          "type": "string[]"
        },
        {
          "indexed": false,
          "internalType": "bytes[]",
          "name": "calldatas",
          "type": "bytes[]"
        },
        {
          "indexed": false,
          "internalType": "uint256",
          "name": "startBlock",
          "type": "uint256"
        },
        {
          "indexed": false,
          "internalType": "uint256",
          "name": "endBlock",
          "type": "uint256"
        },
        {
          "indexed": false,
          "internalType": "string",
          "name": "description",
          "type": "string"
        }
      ],
      "name": "ProposalCreated",
      "type": "event"
    },
    {
      "anonymous": false,
      "inputs": [
        {
          "indexed": false,
          "internalType": "uint256",
          "name": "proposalId",
          "type": "uint256"
        }
      ],
      "name": "ProposalExecuted",
      "type": "event"
    },
    {
      "anonymous": false,
      "inputs": [
        {
          "indexed": false,
          "internalType": "uint256",
          "name": "oldQuorumNumerator",
          "type": "uint256"
        },
        {
          "indexed": false,
          "internalType": "uint256",
          "name": "newQuorumNumerator",
          "type": "uint256"
        }
      ],
      "name": "QuorumNumeratorUpdated",
      "type": "event"
    },
    {
      "anonymous": false,
      "inputs": [
        {
          "indexed": true,
          "internalType": "address",
          "name": "voter",
          "type": "address"
        },
        {
          "indexed": false,
          "internalType": "uint256",
          "name": "proposalId",
          "type": "uint256"
        },
        {
          "indexed": false,
          "internalType": "uint8",
          "name": "support",
          "type": "uint8"
        },
        {
          "indexed": false,
          "internalType": "uint256",
          "name": "weight",
          "type": "uint256"
        },
        {
          "indexed": false,
          "internalType": "string",
          "name": "reason",
          "type": "string"
        }
      ],
      "name": "VoteCast",
      "type": "event"
    },
    {
      "anonymous": false,
      "inputs": [
        {
          "indexed": true,
          "internalType": "address",
          "name": "voter",
          "type": "address"
        },
        {
          "indexed": false,
          "internalType": "uint256",
          "name": "proposalId",
          "type": "uint256"
        },
        {
          "indexed": false,
          "internalType": "uint8",
          "name": "support",
          "type": "uint8"
        },
        {
          "indexed": false,
          "internalType": "uint256",
          "name": "weight",
          "type": "uint256"
        },
        {
          "indexed": false,
          "internalType": "string",
          "name": "reason",
          "type": "string"
        },
        {
          "indexed": false,
          "internalType": "bytes",
          "name": "params",
          "type": "bytes"
        }
      ],
      "name": "VoteCastWithParams",
      "type": "event"
    },
    {
      "inputs": [],
      "name": "BALLOT_TYPEHASH",
      "outputs": [
        {
          "internalType": "bytes32",
          "name": "",
          "type": "bytes32"
        }
      ],
      "stateMutability": "view",
      "type": "function"
    },
    {
      "inputs": [],
      "name": "COUNTING_MODE",
      "outputs": [
        {
          "internalType": "string",
          "name": "",
          "type": "string"
        }
      ],
      "stateMutability": "pure",
      "type": "function"
    },
    {
      "inputs": [],
      "name": "EXTENDED_BALLOT_TYPEHASH",
      "outputs": [
        {
          "internalType": "bytes32",
          "name": "",
          "type": "bytes32"
        }
      ],
      "stateMutability": "view",
      "type": "function"
    },
    {
      "inputs": [
        {
          "internalType": "uint256",
          "name": "proposalId",
          "type": "uint256"
        },
        {
          "internalType": "uint8",
          "name": "support",
          "type": "uint8"
        }
      ],
      "name": "castVote",
      "outputs": [
        {
          "internalType": "uint256",
          "name": "",
          "type": "uint256"
        }
      ],
      "stateMutability": "nonpayable",
      "type": "function"
    },
    {
      "inputs": [
        {
          "internalType": "uint256",
          "name": "proposalId",
          "type": "uint256"
        },
        {
          "internalType": "uint8",
          "name": "support",
          "type": "uint8"
        },
        {
          "internalType": "uint8",
          "name": "v",
          "type": "uint8"
        },
        {
          "internalType": "bytes32",
          "name": "r",
          "type": "bytes32"
        },
        {
          "internalType": "bytes32",
          "name": "s",
          "type": "bytes32"
        }
      ],
      "name": "castVoteBySig",
      "outputs": [
        {
          "internalType": "uint256",
          "name": "",
          "type": "uint256"
        }
      ],
      "stateMutability": "nonpayable",
      "type": "function"
    },
    {
      "inputs": [
        {
          "internalType": "uint256",
          "name": "proposalId",
          "type": "uint256"
        },
        {
          "internalType": "uint8",
          "name": "support",
          "type": "uint8"
        },
        {
          "internalType": "string",
          "name": "reason",
          "type": "string"
        }
      ],
      "name": "castVoteWithReason",
      "outputs": [
        {
          "internalType": "uint256",
          "name": "",
          "type": "uint256"
        }
      ],
      "stateMutability": "nonpayable",
      "type": "function"
    },
    {
      "inputs": [
        {
          "internalType": "uint256",
          "name": "proposalId",
          "type": "uint256"
        },
        {
          "internalType": "uint8",
          "name": "support",
          "type": "uint8"
        },
        {
          "internalType": "string",
          "name": "reason",
          "type": "string"
        },
        {
          "internalType": "bytes",
          "name": "params",
          "type": "bytes"
        }
      ],
      "name": "castVoteWithReasonAndParams",
      "outputs": [
        {
          "internalType": "uint256",
          "name": "",
          "type": "uint256"
        }
      ],
      "stateMutability": "nonpayable",
      "type": "function"
    },
    {
      "inputs": [
        {
          "internalType": "uint256",
          "name": "proposalId",
          "type": "uint256"
        },
        {
          "internalType": "uint8",
          "name": "support",
          "type": "uint8"
        },
        {
          "internalType": "string",
          "name": "reason",
          "type": "string"
        },
        {
          "internalType": "bytes",
          "name": "params",
          "type": "bytes"
        },
        {
          "internalType": "uint8",
          "name": "v",
          "type": "uint8"
        },
        {
          "internalType": "bytes32",
          "name": "r",
          "type": "bytes32"
        },
        {
          "internalType": "bytes32",
          "name": "s",
          "type": "bytes32"
        }
      ],
      "name": "castVoteWithReasonAndParamsBySig",
      "outputs": [
        {
          "internalType": "uint256",
          "name": "",
          "type": "uint256"
        }
      ],
      "stateMutability": "nonpayable",
      "type": "function"
    },
    {
      "inputs": [
        {
          "internalType": "address[]",
          "name": "targets",
          "type": "address[]"
        },
        {
          "internalType": "uint256[]",
          "name": "values",
          "type": "uint256[]"
        },
        {
          "internalType": "bytes[]",
          "name": "calldatas",
          "type": "bytes[]"
        },
        {
          "internalType": "bytes32",
          "name": "descriptionHash",
          "type": "bytes32"
        }
      ],
      "name": "execute",
      "outputs": [
        {
          "internalType": "uint256",
          "name": "",
          "type": "uint256"
        }
      ],
      "stateMutability": "payable",
      "type": "function"
    },
    {
      "inputs": [
        {
          "internalType": "address",
          "name": "account",
          "type": "address"
        },
        {
          "internalType": "uint256",
          "name": "blockNumber",
          "type": "uint256"
        }
      ],
      "name": "getVotes",
      "outputs": [
        {
          "internalType": "uint256",
          "name": "",
          "type": "uint256"
        }
      ],
      "stateMutability": "view",
      "type": "function"
    },
    {
      "inputs": [
        {
          "internalType": "address",
          "name": "account",
          "type": "address"
        },
        {
          "internalType": "uint256",
          "name": "blockNumber",
          "type": "uint256"
        },
        {
          "internalType": "bytes",
          "name": "params",
          "type": "bytes"
        }
      ],
      "name": "getVotesWithParams",
      "outputs": [
        {
          "internalType": "uint256",
          "name": "",
          "type": "uint256"
        }
      ],
      "stateMutability": "view",
      "type": "function"
    },
    {
      "inputs": [
        {
          "internalType": "uint256",
          "name": "proposalId",
          "type": "uint256"
        },
        {
          "internalType": "address",
          "name": "account",
          "type": "address"
        }
      ],
      "name": "hasVoted",
      "outputs": [
        {
          "internalType": "bool",
          "name": "",
          "type": "bool"
        }
      ],
      "stateMutability": "view",
      "type": "function"
    },
    {
      "inputs": [
        {
          "internalType": "address[]",
          "name": "targets",
          "type": "address[]"
        },
        {
          "internalType": "uint256[]",
          "name": "values",
          "type": "uint256[]"
        },
        {
          "internalType": "bytes[]",
          "name": "calldatas",
          "type": "bytes[]"
        },
        {
          "internalType": "bytes32",
          "name": "descriptionHash",
          "type": "bytes32"
        }
      ],
      "name": "hashProposal",
      "outputs": [
        {
          "internalType": "uint256",
          "name": "",
          "type": "uint256"
        }
      ],
      "stateMutability": "pure",
      "type": "function"
    },
    {
      "inputs": [],
      "name": "name",
      "outputs": [
        {
          "internalType": "string",
          "name": "",
          "type": "string"
        }
      ],
      "stateMutability": "view",
      "type": "function"
    },
    {
      "inputs": [
        {
          "internalType": "address",
          "name": "",
          "type": "address"
        },
        {
          "internalType": "address",
          "name": "",
          "type": "address"
        },
        {
          "internalType": "uint256[]",
          "name": "",
          "type": "uint256[]"
        },
        {
          "internalType": "uint256[]",
          "name": "",
          "type": "uint256[]"
        },
        {
          "internalType": "bytes",
          "name": "",
          "type": "bytes"
        }
      ],
      "name": "onERC1155BatchReceived",
      "outputs": [
        {
          "internalType": "bytes4",
          "name": "",
          "type": "bytes4"
        }
      ],
      "stateMutability": "nonpayable",
      "type": "function"
    },
    {
      "inputs": [
        {
          "internalType": "address",
          "name": "",
          "type": "address"
        },
        {
          "internalType": "address",
          "name": "",
          "type": "address"
        },
        {
          "internalType": "uint256",
          "name": "",
          "type": "uint256"
        },
        {
          "internalType": "uint256",
          "name": "",
          "type": "uint256"
        },
        {
          "internalType": "bytes",
          "name": "",
          "type": "bytes"
        }
      ],
      "name": "onERC1155Received",
      "outputs": [
        {
          "internalType": "bytes4",
          "name": "",
          "type": "bytes4"
        }
      ],
      "stateMutability": "nonpayable",
      "type": "function"
    },
    {
      "inputs": [
        {
          "internalType": "address",
          "name": "",
          "type": "address"
        },
        {
          "internalType": "address",
          "name": "",
          "type": "address"
        },
        {
          "internalType": "uint256",
          "name": "",
          "type": "uint256"
        },
        {
          "internalType": "bytes",
          "name": "",
          "type": "bytes"
        }
      ],
      "name": "onERC721Received",
      "outputs": [
        {
          "internalType": "bytes4",
          "name": "",
          "type": "bytes4"
        }
      ],
      "stateMutability": "nonpayable",
      "type": "function"
    },
    {
      "inputs": [
        {
          "internalType": "uint256",
          "name": "proposalId",
          "type": "uint256"
        }
      ],
      "name": "proposalDeadline",
      "outputs": [
        {
          "internalType": "uint256",
          "name": "",
          "type": "uint256"
        }
      ],
      "stateMutability": "view",
      "type": "function"
    },
    {
      "inputs": [
        {
          "internalType": "uint256",
          "name": "proposalId",
          "type": "uint256"
        }
      ],
      "name": "proposalSnapshot",
      "outputs": [
        {
          "internalType": "uint256",
          "name": "",
          "type": "uint256"
        }
      ],
      "stateMutability": "view",
      "type": "function"
    },
    {
      "inputs": [],
      "name": "proposalThreshold",
      "outputs": [
        {
          "internalType": "uint256",
          "name": "",
          "type": "uint256"
        }
      ],
      "stateMutability": "view",
      "type": "function"
    },
    {
      "inputs": [
        {
          "internalType": "uint256",
          "name": "proposalId",
          "type": "uint256"
        }
      ],
      "name": "proposalVotes",
      "outputs": [
        {
          "internalType": "uint256",
          "name": "againstVotes",
          "type": "uint256"
        },
        {
          "internalType": "uint256",
          "name": "forVotes",
          "type": "uint256"
        },
        {
          "internalType": "uint256",
          "name": "abstainVotes",
          "type": "uint256"
        }
      ],
      "stateMutability": "view",
      "type": "function"
    },
    {
      "inputs": [
        {
          "internalType": "address[]",
          "name": "targets",
          "type": "address[]"
        },
        {
          "internalType": "uint256[]",
          "name": "values",
          "type": "uint256[]"
        },
        {
          "internalType": "bytes[]",
          "name": "calldatas",
          "type": "bytes[]"
        },
        {
          "internalType": "string",
          "name": "description",
          "type": "string"
        }
      ],
      "name": "propose",
      "outputs": [
        {
          "internalType": "uint256",
          "name": "",
          "type": "uint256"
        }
      ],
      "stateMutability": "nonpayable",
      "type": "function"
    },
    {
      "inputs": [],
      "name": "quorumDenominator",
      "outputs": [
        {
          "internalType": "uint256",
          "name": "",
          "type": "uint256"
        }
      ],
      "stateMutability": "view",
      "type": "function"
    },
    {
      "inputs": [
        {
          "internalType": "uint256",
          "name": "blockNumber",
          "type": "uint256"
        }
      ],
      "name": "quorumNumerator",
      "outputs": [
        {
          "internalType": "uint256",
          "name": "",
          "type": "uint256"
        }
      ],
      "stateMutability": "view",
      "type": "function"
    },
    {
      "inputs": [],
      "name": "quorumNumerator",
      "outputs": [
        {
          "internalType": "uint256",
          "name": "",
          "type": "uint256"
        }
      ],
      "stateMutability": "view",
      "type": "function"
    },
    {
      "inputs": [
        {
          "internalType": "address",
          "name": "target",
          "type": "address"
        },
        {
          "internalType": "uint256",
          "name": "value",
          "type": "uint256"
        },
        {
          "internalType": "bytes",
          "name": "data",
          "type": "bytes"
        }
      ],
      "name": "relay",
      "outputs": [],
      "stateMutability": "payable",
      "type": "function"
    },
    {
      "inputs": [
        {
          "internalType": "uint256",
          "name": "proposalId",
          "type": "uint256"
        }
      ],
      "name": "state",
      "outputs": [
        {
          "internalType": "enum IGovernor.ProposalState",
          "name": "",
          "type": "uint8"
        }
      ],
      "stateMutability": "view",
      "type": "function"
    },
    {
      "inputs": [
        {
          "internalType": "bytes4",
          "name": "interfaceId",
          "type": "bytes4"
        }
      ],
      "name": "supportsInterface",
      "outputs": [
        {
          "internalType": "bool",
          "name": "",
          "type": "bool"
        }
      ],
      "stateMutability": "view",
      "type": "function"
    },
    {
      "inputs": [],
      "name": "token",
      "outputs": [
        {
          "internalType": "contract IVotes",
          "name": "",
          "type": "address"
        }
      ],
      "stateMutability": "view",
      "type": "function"
    },
    {
      "inputs": [
        {
          "internalType": "uint256",
          "name": "newQuorumNumerator",
          "type": "uint256"
        }
      ],
      "name": "updateQuorumNumerator",
      "outputs": [],
      "stateMutability": "nonpayable",
      "type": "function"
    },
    {
      "inputs": [],
      "name": "version",
      "outputs": [
        {
          "internalType": "string",
          "name": "",
          "type": "string"
        }
      ],
      "stateMutability": "view",
      "type": "function"
    },
    {
      "stateMutability": "payable",
      "type": "receive"
    },
    {
      "inputs": [],
      "name": "votingDelay",
      "outputs": [
        {
          "internalType": "uint256",
          "name": "",
          "type": "uint256"
        }
      ],
      "stateMutability": "pure",
      "type": "function"
    },
    {
      "inputs": [],
      "name": "votingPeriod",
      "outputs": [
        {
          "internalType": "uint256",
          "name": "",
          "type": "uint256"
        }
      ],
      "stateMutability": "pure",
      "type": "function"
    },
    {
      "inputs": [
        {
          "internalType": "uint256",
          "name": "blockNumber",
          "type": "uint256"
        }
      ],
      "name": "quorum",
      "outputs": [
        {
          "internalType": "uint256",
          "name": "",
          "type": "uint256"
        }
      ],
      "stateMutability": "view",
      "type": "function"
    }
  ],
  "bytecode": "0x6101606040523480156200001257600080fd5b506040516200698038038062006980833981810160405281019062000038919062000b02565b6004816040518060400160405280600b81526020017f44616f476f7665726e6f7200000000000000000000000000000000000000000081525080620000826200019d60201b60201c565b60008280519060200120905060008280519060200120905060007f8b73c3c69bb8fe3d512ecc4cf759cc79239f7b179b0ffacaa9a75d522b39400f90508260e081815250508161010081815250504660a08181525050620000eb818484620001da60201b60201c565b608081815250503073ffffffffffffffffffffffffffffffffffffffff1660c08173ffffffffffffffffffffffffffffffffffffffff1681525050806101208181525050505050505080600090805190602001906200014c929190620009d4565b50508073ffffffffffffffffffffffffffffffffffffffff166101408173ffffffffffffffffffffffffffffffffffffffff16815250505062000195816200021660201b60201c565b505062000f44565b60606040518060400160405280600181526020017f3100000000000000000000000000000000000000000000000000000000000000815250905090565b60008383834630604051602001620001f795949392919062000b7b565b6040516020818303038152906040528051906020012090509392505050565b62000226620003f560201b60201c565b8111156200026b576040517f08c379a0000000000000000000000000000000000000000000000000000000008152600401620002629062000c85565b60405180910390fd5b60006200027d620003fe60201b60201c565b9050600081141580156200029957506000600660000180549050145b15620003995760066000016040518060400160405280600063ffffffff168152602001620002d2846200045460201b62001a8b1760201c565b7bffffffffffffffffffffffffffffffffffffffffffffffffffffffff168152509080600181540180825580915050600190039060005260206000200160009091909190915060008201518160000160006101000a81548163ffffffff021916908363ffffffff16021790555060208201518160000160046101000a8154817bffffffffffffffffffffffffffffffffffffffffffffffffffffffff02191690837bffffffffffffffffffffffffffffffffffffffffffffffffffffffff16021790555050505b620003b4826006620004c260201b62001af61790919060201c565b50507f0553476bf02ef2726e8ce5ced78d63e26e602e4a2257b1f559418e24b46339978183604051620003e992919062000ca7565b60405180910390a15050565b60006064905090565b600080600660000180549050146200044b576200042760066200055260201b62001b641760201c565b7bffffffffffffffffffffffffffffffffffffffffffffffffffffffff166200044f565b6005545b905090565b60007bffffffffffffffffffffffffffffffffffffffffffffffffffffffff8016821115620004ba576040517f08c379a0000000000000000000000000000000000000000000000000000000008152600401620004b19062000d4a565b60405180910390fd5b819050919050565b6000806200050584600001620004e343620005c860201b62001bce1760201c565b620004f9866200045460201b62001a8b1760201c565b6200061e60201b60201c565b817bffffffffffffffffffffffffffffffffffffffffffffffffffffffff169150807bffffffffffffffffffffffffffffffffffffffffffffffffffffffff169050915091509250929050565b6000808260000180549050905060008114620005bd576200058b836000016001836200057f919062000d9b565b620009bf60201b60201c565b60000160049054906101000a90047bffffffffffffffffffffffffffffffffffffffffffffffffffffffff16620005c0565b60005b915050919050565b600063ffffffff801682111562000616576040517f08c379a00000000000000000000000000000000000000000000000000000000081526004016200060d9062000e4c565b60405180910390fd5b819050919050565b6000806000858054905090506000811115620008cf57600062000656876001846200064a919062000d9b565b620009bf60201b60201c565b6040518060400160405290816000820160009054906101000a900463ffffffff1663ffffffff1663ffffffff1681526020016000820160049054906101000a90047bffffffffffffffffffffffffffffffffffffffffffffffffffffffff167bffffffffffffffffffffffffffffffffffffffffffffffffffffffff167bffffffffffffffffffffffffffffffffffffffffffffffffffffffff168152505090508563ffffffff16816000015163ffffffff1611156200074d576040517f08c379a0000000000000000000000000000000000000000000000000000000008152600401620007449062000ebe565b60405180910390fd5b8563ffffffff16816000015163ffffffff1603620007dd578462000786886001856200077a919062000d9b565b620009bf60201b60201c565b60000160046101000a8154817bffffffffffffffffffffffffffffffffffffffffffffffffffffffff02191690837bffffffffffffffffffffffffffffffffffffffffffffffffffffffff160217905550620008bd565b8660405180604001604052808863ffffffff168152602001877bffffffffffffffffffffffffffffffffffffffffffffffffffffffff168152509080600181540180825580915050600190039060005260206000200160009091909190915060008201518160000160006101000a81548163ffffffff021916908363ffffffff16021790555060208201518160000160046101000a8154817bffffffffffffffffffffffffffffffffffffffffffffffffffffffff02191690837bffffffffffffffffffffffffffffffffffffffffffffffffffffffff16021790555050505b806020015185935093505050620009b7565b8560405180604001604052808763ffffffff168152602001867bffffffffffffffffffffffffffffffffffffffffffffffffffffffff168152509080600181540180825580915050600190039060005260206000200160009091909190915060008201518160000160006101000a81548163ffffffff021916908363ffffffff16021790555060208201518160000160046101000a8154817bffffffffffffffffffffffffffffffffffffffffffffffffffffffff02191690837bffffffffffffffffffffffffffffffffffffffffffffffffffffffff160217905550505060008492509250505b935093915050565b60008260005281602060002001905092915050565b828054620009e29062000f0f565b90600052602060002090601f01602090048101928262000a06576000855562000a52565b82601f1062000a2157805160ff191683800117855562000a52565b8280016001018555821562000a52579182015b8281111562000a5157825182559160200191906001019062000a34565b5b50905062000a61919062000a65565b5090565b5b8082111562000a8057600081600090555060010162000a66565b5090565b600080fd5b600073ffffffffffffffffffffffffffffffffffffffff82169050919050565b600062000ab68262000a89565b9050919050565b600062000aca8262000aa9565b9050919050565b62000adc8162000abd565b811462000ae857600080fd5b50565b60008151905062000afc8162000ad1565b92915050565b60006020828403121562000b1b5762000b1a62000a84565b5b600062000b2b8482850162000aeb565b91505092915050565b6000819050919050565b62000b498162000b34565b82525050565b6000819050919050565b62000b648162000b4f565b82525050565b62000b758162000aa9565b82525050565b600060a08201905062000b92600083018862000b3e565b62000ba1602083018762000b3e565b62000bb0604083018662000b3e565b62000bbf606083018562000b59565b62000bce608083018462000b6a565b9695505050505050565b600082825260208201905092915050565b7f476f7665726e6f72566f74657351756f72756d4672616374696f6e3a2071756f60008201527f72756d4e756d657261746f72206f7665722071756f72756d44656e6f6d696e6160208201527f746f720000000000000000000000000000000000000000000000000000000000604082015250565b600062000c6d60438362000bd8565b915062000c7a8262000be9565b606082019050919050565b6000602082019050818103600083015262000ca08162000c5e565b9050919050565b600060408201905062000cbe600083018562000b59565b62000ccd602083018462000b59565b9392505050565b7f53616665436173743a2076616c756520646f65736e27742066697420696e203260008201527f3234206269747300000000000000000000000000000000000000000000000000602082015250565b600062000d3260278362000bd8565b915062000d3f8262000cd4565b604082019050919050565b6000602082019050818103600083015262000d658162000d23565b9050919050565b7f4e487b7100000000000000000000000000000000000000000000000000000000600052601160045260246000fd5b600062000da88262000b4f565b915062000db58362000b4f565b92508282101562000dcb5762000dca62000d6c565b5b828203905092915050565b7f53616665436173743a2076616c756520646f65736e27742066697420696e203360008201527f3220626974730000000000000000000000000000000000000000000000000000602082015250565b600062000e3460268362000bd8565b915062000e418262000dd6565b604082019050919050565b6000602082019050818103600083015262000e678162000e25565b9050919050565b7f436865636b706f696e743a20696e76616c6964206b6579000000000000000000600082015250565b600062000ea660178362000bd8565b915062000eb38262000e6e565b602082019050919050565b6000602082019050818103600083015262000ed98162000e97565b9050919050565b7f4e487b7100000000000000000000000000000000000000000000000000000000600052602260045260246000fd5b6000600282049050600182168062000f2857607f821691505b60208210810362000f3e5762000f3d62000ee0565b5b50919050565b60805160a05160c05160e0516101005161012051610140516159d362000fad60003960008181611a69015281816125b101526126a201526000612b9e01526000612be001526000612bbf01526000612af401526000612b4a01526000612b7301526159d36000f3fe6080604052600436106101fd5760003560e01c806360c4247f1161010d578063c01f9e37116100a0578063deaaa7cc1161006f578063deaaa7cc1461084f578063eb9019d41461087a578063f23a6e61146108b7578063f8ce560a146108f4578063fc0c546a1461093157610243565b8063c01f9e371461078e578063c28bc2fa146107cb578063c59057e4146107e7578063dd4e2ba51461082457610243565b80639a802a6d116100dc5780639a802a6d146106be578063a7713a70146106fb578063b58131b014610726578063bc197c811461075157610243565b806360c4247f146105dc5780637b3c71d3146106195780637d5e81e21461065657806397c3d3341461069357610243565b80632fe3e26111610190578063438596321161015f57806343859632146104bb578063544ffc9c146104f857806354fd4d501461053757806356781388146105625780635f398a141461059f57610243565b80632fe3e261146103eb5780633932abb1146104165780633bccf4fd146104415780633e4f49e61461047e57610243565b806306fdde03116101cc57806306fdde0314610316578063150b7a02146103415780632656227d1461037e5780632d63f693146103ae57610243565b806301ffc9a71461024857806302a251a31461028557806303420181146102b057806306f3f9e6146102ed57610243565b36610243573073ffffffffffffffffffffffffffffffffffffffff1661022161095c565b73ffffffffffffffffffffffffffffffffffffffff161461024157600080fd5b005b600080fd5b34801561025457600080fd5b5061026f600480360381019061026a919061334a565b610964565b60405161027c9190613392565b60405180910390f35b34801561029157600080fd5b5061029a610ac9565b6040516102a791906133c6565b60405180910390f35b3480156102bc57600080fd5b506102d760048036038101906102d29190613622565b610ad2565b6040516102e491906133c6565b60405180910390f35b3480156102f957600080fd5b50610314600480360381019061030f9190613700565b610bb7565b005b34801561032257600080fd5b5061032b610cae565b60405161033891906137b5565b60405180910390f35b34801561034d57600080fd5b5061036860048036038101906103639190613835565b610d40565b60405161037591906138c7565b60405180910390f35b61039860048036038101906103939190613b49565b610d54565b6040516103a591906133c6565b60405180910390f35b3480156103ba57600080fd5b506103d560048036038101906103d09190613700565b610ea1565b6040516103e291906133c6565b60405180910390f35b3480156103f757600080fd5b50610400610f0f565b60405161040d9190613c13565b60405180910390f35b34801561042257600080fd5b5061042b610f33565b60405161043891906133c6565b60405180910390f35b34801561044d57600080fd5b5061046860048036038101906104639190613c2e565b610f3c565b60405161047591906133c6565b60405180910390f35b34801561048a57600080fd5b506104a560048036038101906104a09190613700565b610fc6565b6040516104b29190613d20565b60405180910390f35b3480156104c757600080fd5b506104e260048036038101906104dd9190613d3b565b6110da565b6040516104ef9190613392565b60405180910390f35b34801561050457600080fd5b5061051f600480360381019061051a9190613700565b611145565b60405161052e93929190613d7b565b60405180910390f35b34801561054357600080fd5b5061054c61117d565b60405161055991906137b5565b60405180910390f35b34801561056e57600080fd5b5061058960048036038101906105849190613db2565b6111ba565b60405161059691906133c6565b60405180910390f35b3480156105ab57600080fd5b506105c660048036038101906105c19190613df2565b6111eb565b6040516105d391906133c6565b60405180910390f35b3480156105e857600080fd5b5061060360048036038101906105fe9190613700565b611255565b60405161061091906133c6565b60405180910390f35b34801561062557600080fd5b50610640600480360381019061063b9190613e96565b6113a1565b60405161064d91906133c6565b60405180910390f35b34801561066257600080fd5b5061067d60048036038101906106789190613fab565b611409565b60405161068a91906133c6565b60405180910390f35b34801561069f57600080fd5b506106a8611710565b6040516106b591906133c6565b60405180910390f35b3480156106ca57600080fd5b506106e560048036038101906106e09190614082565b611719565b6040516106f291906133c6565b60405180910390f35b34801561070757600080fd5b5061071061172f565b60405161071d91906133c6565b60405180910390f35b34801561073257600080fd5b5061073b611776565b60405161074891906133c6565b60405180910390f35b34801561075d57600080fd5b50610778600480360381019061077391906140f1565b61177b565b60405161078591906138c7565b60405180910390f35b34801561079a57600080fd5b506107b560048036038101906107b09190613700565b611790565b6040516107c291906133c6565b60405180910390f35b6107e560048036038101906107e09190614216565b6117fe565b005b3480156107f357600080fd5b5061080e60048036038101906108099190613b49565b611987565b60405161081b91906133c6565b60405180910390f35b34801561083057600080fd5b506108396119c3565b60405161084691906137b5565b60405180910390f35b34801561085b57600080fd5b50610864611a00565b6040516108719190613c13565b60405180910390f35b34801561088657600080fd5b506108a1600480360381019061089c919061428a565b611a24565b6040516108ae91906133c6565b60405180910390f35b3480156108c357600080fd5b506108de60048036038101906108d991906142ca565b611a40565b6040516108eb91906138c7565b60405180910390f35b34801561090057600080fd5b5061091b60048036038101906109169190613700565b611a55565b60405161092891906133c6565b60405180910390f35b34801561093d57600080fd5b50610946611a67565b60405161095391906143c0565b60405180910390f35b600030905090565b6000639a802a6d60e01b630342018160e01b635f398a1460e01b7f79dd796f000000000000000000000000000000000000000000000000000000001818187bffffffffffffffffffffffffffffffffffffffffffffffffffffffff1916827bffffffffffffffffffffffffffffffffffffffffffffffffffffffff19161480610a4a57507f79dd796f000000000000000000000000000000000000000000000000000000007bffffffffffffffffffffffffffffffffffffffffffffffffffffffff1916827bffffffffffffffffffffffffffffffffffffffffffffffffffffffff1916145b80610ab257507f4e2312e0000000000000000000000000000000000000000000000000000000007bffffffffffffffffffffffffffffffffffffffffffffffffffffffff1916827bffffffffffffffffffffffffffffffffffffffffffffffffffffffff1916145b80610ac25750610ac182611c21565b5b9050919050565b60006005905090565b600080610b55610b4d7fb3b3f3b703cd84ce352197dcff232b1b5d3cfb2025ce47cf04742d0651f1af888c8c8c8c604051610b0e92919061440b565b60405180910390208b80519060200120604051602001610b32959493929190614433565b60405160208183030381529060405280519060200120611c8b565b868686611ca5565b9050610ba88a828b8b8b8080601f016020809104026020016040519081016040528093929190818152602001838380828437600081840152601f19601f820116905080830192505050505050508a611cd0565b91505098975050505050505050565b610bbf61095c565b73ffffffffffffffffffffffffffffffffffffffff16610bdd611e8c565b73ffffffffffffffffffffffffffffffffffffffff1614610c33576040517f08c379a0000000000000000000000000000000000000000000000000000000008152600401610c2a906144d2565b60405180910390fd5b3073ffffffffffffffffffffffffffffffffffffffff16610c5261095c565b73ffffffffffffffffffffffffffffffffffffffff1614610ca2576000610c77611e94565b604051610c8592919061440b565b604051809103902090505b80610c9b6002611ea1565b03610c9057505b610cab81611f7d565b50565b606060008054610cbd90614521565b80601f0160208091040260200160405190810160405280929190818152602001828054610ce990614521565b8015610d365780601f10610d0b57610100808354040283529160200191610d36565b820191906000526020600020905b815481529060010190602001808311610d1957829003601f168201915b5050505050905090565b600063150b7a0260e01b9050949350505050565b600080610d6386868686611987565b90506000610d7082610fc6565b905060046007811115610d8657610d85613ca9565b5b816007811115610d9957610d98613ca9565b5b1480610dc9575060056007811115610db457610db3613ca9565b5b816007811115610dc757610dc6613ca9565b5b145b610e08576040517f08c379a0000000000000000000000000000000000000000000000000000000008152600401610dff906145c4565b60405180910390fd5b600180600084815260200190815260200160002060020160006101000a81548160ff0219169083151502179055507f712ae1383f79ac853f8d882153778e0260ef8f03b504e2866e0593e04d2b291f82604051610e6591906133c6565b60405180910390a1610e7a8288888888612131565b610e878288888888612214565b610e948288888888612323565b8192505050949350505050565b6000610efe600160008481526020019081526020016000206000016040518060200160405290816000820160009054906101000a900467ffffffffffffffff1667ffffffffffffffff1667ffffffffffffffff168152505061237e565b67ffffffffffffffff169050919050565b7fb3b3f3b703cd84ce352197dcff232b1b5d3cfb2025ce47cf04742d0651f1af8881565b60006001905090565b600080610f9d610f957f150214d74d59b7d1e90c73fc22ef3d991dd0a76b046543d4d80ab92d2a50328f8989604051602001610f7a939291906145e4565b60405160208183030381529060405280519060200120611c8b565b868686611ca5565b9050610fba8782886040518060200160405280600081525061238c565b91505095945050505050565b6000806001600084815260200190815260200160002090508060020160009054906101000a900460ff1615610fff5760079150506110d5565b8060020160019054906101000a900460ff16156110205760029150506110d5565b600061102b84610ea1565b905060008103611070576040517f08c379a000000000000000000000000000000000000000000000000000000000815260040161106790614667565b60405180910390fd5b438110611082576000925050506110d5565b600061108d85611790565b90504381106110a257600193505050506110d5565b6110ab856123ac565b80156110bc57506110bb856123f3565b5b156110cd57600493505050506110d5565b600393505050505b919050565b60006004600084815260200190815260200160002060030160008373ffffffffffffffffffffffffffffffffffffffff1673ffffffffffffffffffffffffffffffffffffffff16815260200190815260200160002060009054906101000a900460ff16905092915050565b600080600080600460008681526020019081526020016000209050806000015481600101548260020154935093509350509193909250565b60606040518060400160405280600181526020017f3100000000000000000000000000000000000000000000000000000000000000815250905090565b6000806111c5611e8c565b90506111e28482856040518060200160405280600081525061238c565b91505092915050565b6000806111f6611e8c565b905061124987828888888080601f016020809104026020016040519081016040528093929190818152602001838380828437600081840152601f19601f8201169050808301925050505050505087611cd0565b91505095945050505050565b6000806006600001805490509050600081036112765760055491505061139c565b6000600660000160018361128a91906146b6565b8154811061129b5761129a6146ea565b5b906000526020600020016040518060400160405290816000820160009054906101000a900463ffffffff1663ffffffff1663ffffffff1681526020016000820160049054906101000a90047bffffffffffffffffffffffffffffffffffffffffffffffffffffffff167bffffffffffffffffffffffffffffffffffffffffffffffffffffffff167bffffffffffffffffffffffffffffffffffffffffffffffffffffffff1681525050905083816000015163ffffffff16116113835780602001517bffffffffffffffffffffffffffffffffffffffffffffffffffffffff169250505061139c565b61139784600661241e90919063ffffffff16565b925050505b919050565b6000806113ac611e8c565b90506113fe86828787878080601f016020809104026020016040519081016040528093929190818152602001838380828437600081840152601f19601f8201169050808301925050505050505061238c565b915050949350505050565b6000611413611776565b61143061141e611e8c565b60014361142b91906146b6565b611a24565b1015611471576040517f08c379a00000000000000000000000000000000000000000000000000000000081526004016114689061478b565b60405180910390fd5b60006114868686868680519060200120611987565b905084518651146114cc576040517f08c379a00000000000000000000000000000000000000000000000000000000081526004016114c39061481d565b60405180910390fd5b8351865114611510576040517f08c379a00000000000000000000000000000000000000000000000000000000081526004016115079061481d565b60405180910390fd5b6000865111611554576040517f08c379a000000000000000000000000000000000000000000000000000000000815260040161154b90614889565b60405180910390fd5b60006001600083815260200190815260200160002090506115b4816000016040518060200160405290816000820160009054906101000a900467ffffffffffffffff1667ffffffffffffffff1667ffffffffffffffff168152505061250d565b6115f3576040517f08c379a00000000000000000000000000000000000000000000000000000000081526004016115ea9061491b565b60405180910390fd5b6000611605611600610f33565b612527565b61160e43612527565b611618919061494f565b9050600061162c611627610ac9565b612527565b82611637919061494f565b905061164f828460000161257e90919063ffffffff16565b611665818460010161257e90919063ffffffff16565b7f7d84a6263ae0d98d3329bd7b46bb4e8d6f98cd35a7adb45c274c8b7fd5ebd5e08461168f611e8c565b8b8b8d5167ffffffffffffffff8111156116ac576116ab6134c1565b5b6040519080825280602002602001820160405280156116df57816020015b60608152602001906001900390816116ca5790505b508c88888e6040516116f999989796959493929190614d6c565b60405180910390a183945050505050949350505050565b60006064905090565b60006117268484846125ad565b90509392505050565b6000806006600001805490501461176d5761174a6006611b64565b7bffffffffffffffffffffffffffffffffffffffffffffffffffffffff16611771565b6005545b905090565b600090565b600063bc197c8160e01b905095945050505050565b60006117ed600160008481526020019081526020016000206001016040518060200160405290816000820160009054906101000a900467ffffffffffffffff1667ffffffffffffffff1667ffffffffffffffff168152505061237e565b67ffffffffffffffff169050919050565b61180661095c565b73ffffffffffffffffffffffffffffffffffffffff16611824611e8c565b73ffffffffffffffffffffffffffffffffffffffff161461187a576040517f08c379a0000000000000000000000000000000000000000000000000000000008152600401611871906144d2565b60405180910390fd5b3073ffffffffffffffffffffffffffffffffffffffff1661189961095c565b73ffffffffffffffffffffffffffffffffffffffff16146118e95760006118be611e94565b6040516118cc92919061440b565b604051809103902090505b806118e26002611ea1565b036118d757505b6000808573ffffffffffffffffffffffffffffffffffffffff1685858560405161191492919061440b565b60006040518083038185875af1925050503d8060008114611951576040519150601f19603f3d011682016040523d82523d6000602084013e611956565b606091505b509150915061197e828260405180606001604052806028815260200161594f60289139612654565b50505050505050565b6000848484846040516020016119a09493929190614e1c565b6040516020818303038152906040528051906020012060001c9050949350505050565b60606040518060400160405280602081526020017f737570706f72743d627261766f2671756f72756d3d666f722c6162737461696e815250905090565b7f150214d74d59b7d1e90c73fc22ef3d991dd0a76b046543d4d80ab92d2a50328f81565b6000611a388383611a33612676565b6125ad565b905092915050565b600063f23a6e6160e01b905095945050505050565b6000611a608261268d565b9050919050565b7f000000000000000000000000000000000000000000000000000000000000000081565b60007bffffffffffffffffffffffffffffffffffffffffffffffffffffffff8016821115611aee576040517f08c379a0000000000000000000000000000000000000000000000000000000008152600401611ae590614ee8565b60405180910390fd5b819050919050565b600080611b1784600001611b0943611bce565b611b1286611a8b565b612755565b817bffffffffffffffffffffffffffffffffffffffffffffffffffffffff169150807bffffffffffffffffffffffffffffffffffffffffffffffffffffffff169050915091509250929050565b6000808260000180549050905060008114611bc357611b9283600001600183611b8d91906146b6565b612adb565b60000160049054906101000a90047bffffffffffffffffffffffffffffffffffffffffffffffffffffffff16611bc6565b60005b915050919050565b600063ffffffff8016821115611c19576040517f08c379a0000000000000000000000000000000000000000000000000000000008152600401611c1090614f7a565b60405180910390fd5b819050919050565b60007f01ffc9a7000000000000000000000000000000000000000000000000000000007bffffffffffffffffffffffffffffffffffffffffffffffffffffffff1916827bffffffffffffffffffffffffffffffffffffffffffffffffffffffff1916149050919050565b6000611c9e611c98612af0565b83612c0a565b9050919050565b6000806000611cb687878787612c3d565b91509150611cc381612d1f565b8192505050949350505050565b60008060016000888152602001908152602001600020905060016007811115611cfc57611cfb613ca9565b5b611d0588610fc6565b6007811115611d1757611d16613ca9565b5b14611d57576040517f08c379a0000000000000000000000000000000000000000000000000000000008152600401611d4e9061500c565b60405180910390fd5b6000611db687611da6846000016040518060200160405290816000820160009054906101000a900467ffffffffffffffff1667ffffffffffffffff1667ffffffffffffffff168152505061237e565b67ffffffffffffffff16866125ad565b9050611dc58888888488612e85565b6000845103611e27578673ffffffffffffffffffffffffffffffffffffffff167fb8e138887d0aa13bab447e82de9d5c1777041ecd21ca36ba824ff1e6c07ddda489888489604051611e1a949392919061502c565b60405180910390a2611e7e565b8673ffffffffffffffffffffffffffffffffffffffff167fe2babfbac5889a709b63bb7f598b324e08bc5a4fb9ec647fb3cbc9ec07eb87128988848989604051611e759594939291906150c2565b60405180910390a25b809250505095945050505050565b600033905090565b3660008036915091509091565b6000611eac82613089565b15611ee3576040517f3db2a12a00000000000000000000000000000000000000000000000000000000815260040160405180910390fd5b60008260000160009054906101000a9004600f0b905082600101600082600f0b600f0b815260200190815260200160002054915082600101600082600f0b600f0b815260200190815260200160002060009055600181018360000160006101000a8154816fffffffffffffffffffffffffffffffff0219169083600f0b6fffffffffffffffffffffffffffffffff16021790555050919050565b611f85611710565b811115611fc7576040517f08c379a0000000000000000000000000000000000000000000000000000000008152600401611fbe906151bb565b60405180910390fd5b6000611fd161172f565b905060008114158015611fec57506000600660000180549050145b156120de5760066000016040518060400160405280600063ffffffff16815260200161201784611a8b565b7bffffffffffffffffffffffffffffffffffffffffffffffffffffffff168152509080600181540180825580915050600190039060005260206000200160009091909190915060008201518160000160006101000a81548163ffffffff021916908363ffffffff16021790555060208201518160000160046101000a8154817bffffffffffffffffffffffffffffffffffffffffffffffffffffffff02191690837bffffffffffffffffffffffffffffffffffffffffffffffffffffffff16021790555050505b6120f2826006611af690919063ffffffff16565b50507f0553476bf02ef2726e8ce5ced78d63e26e602e4a2257b1f559418e24b463399781836040516121259291906151db565b60405180910390a15050565b3073ffffffffffffffffffffffffffffffffffffffff1661215061095c565b73ffffffffffffffffffffffffffffffffffffffff161461220d5760005b845181101561220b573073ffffffffffffffffffffffffffffffffffffffff168582815181106121a1576121a06146ea565b5b602002602001015173ffffffffffffffffffffffffffffffffffffffff16036121fa576121f98382815181106121da576121d96146ea565b5b60200260200101518051906020012060026130be90919063ffffffff16565b5b8061220490615204565b905061216e565b505b5050505050565b600060405180606001604052806027815260200161597760279139905060005b855181101561231a57600080878381518110612253576122526146ea565b5b602002602001015173ffffffffffffffffffffffffffffffffffffffff16878481518110612284576122836146ea565b5b602002602001015187858151811061229f5761229e6146ea565b5b60200260200101516040516122b4919061527d565b60006040518083038185875af1925050503d80600081146122f1576040519150601f19603f3d011682016040523d82523d6000602084013e6122f6565b606091505b5091509150612306828286612654565b5050508061231390615204565b9050612234565b50505050505050565b3073ffffffffffffffffffffffffffffffffffffffff1661234261095c565b73ffffffffffffffffffffffffffffffffffffffff1614612377576123676002613089565b61237657612375600261313a565b5b5b5050505050565b600081600001519050919050565b60006123a28585858561239d612676565b611cd0565b9050949350505050565b600080600460008481526020019081526020016000209050806002015481600101546123d89190615294565b6123e96123e485610ea1565b611a55565b1115915050919050565b6000806004600084815260200190815260200160002090508060000154816001015411915050919050565b6000438210612462576040517f08c379a000000000000000000000000000000000000000000000000000000000815260040161245990615336565b60405180910390fd5b600061246d83611bce565b9050600084600001805490509050600061248d86600001846000856131bb565b9050600081146124e1576124b0866000016001836124ab91906146b6565b612adb565b60000160049054906101000a90047bffffffffffffffffffffffffffffffffffffffffffffffffffffffff166124e4565b60005b7bffffffffffffffffffffffffffffffffffffffffffffffffffffffff16935050505092915050565b600080826000015167ffffffffffffffff16149050919050565b600067ffffffffffffffff8016821115612576576040517f08c379a000000000000000000000000000000000000000000000000000000000815260040161256d906153c8565b60405180910390fd5b819050919050565b808260000160006101000a81548167ffffffffffffffff021916908367ffffffffffffffff1602179055505050565b60007f000000000000000000000000000000000000000000000000000000000000000073ffffffffffffffffffffffffffffffffffffffff16633a46b1a885856040518363ffffffff1660e01b815260040161260a9291906153e8565b602060405180830381865afa158015612627573d6000803e3d6000fd5b505050506040513d601f19601f8201168201806040525081019061264b9190615426565b90509392505050565b606083156126645782905061266f565b61266e838361322e565b5b9392505050565b606060405180602001604052806000815250905090565b6000612697611710565b6126a083611255565b7f000000000000000000000000000000000000000000000000000000000000000073ffffffffffffffffffffffffffffffffffffffff16638e539e8c856040518263ffffffff1660e01b81526004016126f991906133c6565b602060405180830381865afa158015612716573d6000803e3d6000fd5b505050506040513d601f19601f8201168201806040525081019061273a9190615426565b6127449190615453565b61274e91906154dc565b9050919050565b60008060008580549050905060008111156129eb5760006127828760018461277d91906146b6565b612adb565b6040518060400160405290816000820160009054906101000a900463ffffffff1663ffffffff1663ffffffff1681526020016000820160049054906101000a90047bffffffffffffffffffffffffffffffffffffffffffffffffffffffff167bffffffffffffffffffffffffffffffffffffffffffffffffffffffff167bffffffffffffffffffffffffffffffffffffffffffffffffffffffff168152505090508563ffffffff16816000015163ffffffff161115612876576040517f08c379a000000000000000000000000000000000000000000000000000000000815260040161286d90615559565b60405180910390fd5b8563ffffffff16816000015163ffffffff16036128fa57846128a48860018561289f91906146b6565b612adb565b60000160046101000a8154817bffffffffffffffffffffffffffffffffffffffffffffffffffffffff02191690837bffffffffffffffffffffffffffffffffffffffffffffffffffffffff1602179055506129da565b8660405180604001604052808863ffffffff168152602001877bffffffffffffffffffffffffffffffffffffffffffffffffffffffff168152509080600181540180825580915050600190039060005260206000200160009091909190915060008201518160000160006101000a81548163ffffffff021916908363ffffffff16021790555060208201518160000160046101000a8154817bffffffffffffffffffffffffffffffffffffffffffffffffffffffff02191690837bffffffffffffffffffffffffffffffffffffffffffffffffffffffff16021790555050505b806020015185935093505050612ad3565b8560405180604001604052808763ffffffff168152602001867bffffffffffffffffffffffffffffffffffffffffffffffffffffffff168152509080600181540180825580915050600190039060005260206000200160009091909190915060008201518160000160006101000a81548163ffffffff021916908363ffffffff16021790555060208201518160000160046101000a8154817bffffffffffffffffffffffffffffffffffffffffffffffffffffffff02191690837bffffffffffffffffffffffffffffffffffffffffffffffffffffffff160217905550505060008492509250505b935093915050565b60008260005281602060002001905092915050565b60007f000000000000000000000000000000000000000000000000000000000000000073ffffffffffffffffffffffffffffffffffffffff163073ffffffffffffffffffffffffffffffffffffffff16148015612b6c57507f000000000000000000000000000000000000000000000000000000000000000046145b15612b99577f00000000000000000000000000000000000000000000000000000000000000009050612c07565b612c047f00000000000000000000000000000000000000000000000000000000000000007f00000000000000000000000000000000000000000000000000000000000000007f000000000000000000000000000000000000000000000000000000000000000061327e565b90505b90565b60008282604051602001612c1f9291906155f1565b60405160208183030381529060405280519060200120905092915050565b6000807f7fffffffffffffffffffffffffffffff5d576e7357a4501ddfe92f46681b20a08360001c1115612c78576000600391509150612d16565b600060018787878760405160008152602001604052604051612c9d9493929190615628565b6020604051602081039080840390855afa158015612cbf573d6000803e3d6000fd5b505050602060405103519050600073ffffffffffffffffffffffffffffffffffffffff168173ffffffffffffffffffffffffffffffffffffffff1603612d0d57600060019250925050612d16565b80600092509250505b94509492505050565b60006004811115612d3357612d32613ca9565b5b816004811115612d4657612d45613ca9565b5b0315612e825760016004811115612d6057612d5f613ca9565b5b816004811115612d7357612d72613ca9565b5b03612db3576040517f08c379a0000000000000000000000000000000000000000000000000000000008152600401612daa906156b9565b60405180910390fd5b60026004811115612dc757612dc6613ca9565b5b816004811115612dda57612dd9613ca9565b5b03612e1a576040517f08c379a0000000000000000000000000000000000000000000000000000000008152600401612e1190615725565b60405180910390fd5b60036004811115612e2e57612e2d613ca9565b5b816004811115612e4157612e40613ca9565b5b03612e81576040517f08c379a0000000000000000000000000000000000000000000000000000000008152600401612e78906157b7565b60405180910390fd5b5b50565b60006004600087815260200190815260200160002090508060030160008673ffffffffffffffffffffffffffffffffffffffff1673ffffffffffffffffffffffffffffffffffffffff16815260200190815260200160002060009054906101000a900460ff1615612f2b576040517f08c379a0000000000000000000000000000000000000000000000000000000008152600401612f2290615849565b60405180910390fd5b60018160030160008773ffffffffffffffffffffffffffffffffffffffff1673ffffffffffffffffffffffffffffffffffffffff16815260200190815260200160002060006101000a81548160ff02191690831515021790555060006002811115612f9957612f98613ca9565b5b60ff168460ff1603612fc55782816000016000828254612fb99190615294565b92505081905550613081565b60016002811115612fd957612fd8613ca9565b5b60ff168460ff16036130055782816001016000828254612ff99190615294565b92505081905550613080565b60028081111561301857613017613ca9565b5b60ff168460ff160361304457828160020160008282546130389190615294565b9250508190555061307f565b6040517f08c379a0000000000000000000000000000000000000000000000000000000008152600401613076906158db565b60405180910390fd5b5b5b505050505050565b60008160000160009054906101000a9004600f0b600f0b8260000160109054906101000a9004600f0b600f0b13159050919050565b60008260000160109054906101000a9004600f0b90508183600101600083600f0b600f0b815260200190815260200160002081905550600181018360000160106101000a8154816fffffffffffffffffffffffffffffffff0219169083600f0b6fffffffffffffffffffffffffffffffff160217905550505050565b60008160000160006101000a8154816fffffffffffffffffffffffffffffffff0219169083600f0b6fffffffffffffffffffffffffffffffff16021790555060008160000160106101000a8154816fffffffffffffffffffffffffffffffff0219169083600f0b6fffffffffffffffffffffffffffffffff16021790555050565b60005b818310156132235760006131d284846132b8565b90508463ffffffff166131e58783612adb565b60000160009054906101000a900463ffffffff1663ffffffff16111561320d5780925061321d565b60018161321a9190615294565b93505b506131be565b819050949350505050565b6000825111156132415781518083602001fd5b806040517f08c379a000000000000000000000000000000000000000000000000000000000815260040161327591906137b5565b60405180910390fd5b600083838346306040516020016132999594939291906158fb565b6040516020818303038152906040528051906020012090509392505050565b600060028284186132c991906154dc565b8284166132d69190615294565b905092915050565b6000604051905090565b600080fd5b600080fd5b60007fffffffff0000000000000000000000000000000000000000000000000000000082169050919050565b613327816132f2565b811461333257600080fd5b50565b6000813590506133448161331e565b92915050565b6000602082840312156133605761335f6132e8565b5b600061336e84828501613335565b91505092915050565b60008115159050919050565b61338c81613377565b82525050565b60006020820190506133a76000830184613383565b92915050565b6000819050919050565b6133c0816133ad565b82525050565b60006020820190506133db60008301846133b7565b92915050565b6133ea816133ad565b81146133f557600080fd5b50565b600081359050613407816133e1565b92915050565b600060ff82169050919050565b6134238161340d565b811461342e57600080fd5b50565b6000813590506134408161341a565b92915050565b600080fd5b600080fd5b600080fd5b60008083601f84011261346b5761346a613446565b5b8235905067ffffffffffffffff8111156134885761348761344b565b5b6020830191508360018202830111156134a4576134a3613450565b5b9250929050565b600080fd5b6000601f19601f8301169050919050565b7f4e487b7100000000000000000000000000000000000000000000000000000000600052604160045260246000fd5b6134f9826134b0565b810181811067ffffffffffffffff82111715613518576135176134c1565b5b80604052505050565b600061352b6132de565b905061353782826134f0565b919050565b600067ffffffffffffffff821115613557576135566134c1565b5b613560826134b0565b9050602081019050919050565b82818337600083830152505050565b600061358f61358a8461353c565b613521565b9050828152602081018484840111156135ab576135aa6134ab565b5b6135b684828561356d565b509392505050565b600082601f8301126135d3576135d2613446565b5b81356135e384826020860161357c565b91505092915050565b6000819050919050565b6135ff816135ec565b811461360a57600080fd5b50565b60008135905061361c816135f6565b92915050565b60008060008060008060008060e0898b031215613642576136416132e8565b5b60006136508b828c016133f8565b98505060206136618b828c01613431565b975050604089013567ffffffffffffffff811115613682576136816132ed565b5b61368e8b828c01613455565b9650965050606089013567ffffffffffffffff8111156136b1576136b06132ed565b5b6136bd8b828c016135be565b94505060806136ce8b828c01613431565b93505060a06136df8b828c0161360d565b92505060c06136f08b828c0161360d565b9150509295985092959890939650565b600060208284031215613716576137156132e8565b5b6000613724848285016133f8565b91505092915050565b600081519050919050565b600082825260208201905092915050565b60005b8381101561376757808201518184015260208101905061374c565b83811115613776576000848401525b50505050565b60006137878261372d565b6137918185613738565b93506137a1818560208601613749565b6137aa816134b0565b840191505092915050565b600060208201905081810360008301526137cf818461377c565b905092915050565b600073ffffffffffffffffffffffffffffffffffffffff82169050919050565b6000613802826137d7565b9050919050565b613812816137f7565b811461381d57600080fd5b50565b60008135905061382f81613809565b92915050565b6000806000806080858703121561384f5761384e6132e8565b5b600061385d87828801613820565b945050602061386e87828801613820565b935050604061387f878288016133f8565b925050606085013567ffffffffffffffff8111156138a05761389f6132ed565b5b6138ac878288016135be565b91505092959194509250565b6138c1816132f2565b82525050565b60006020820190506138dc60008301846138b8565b92915050565b600067ffffffffffffffff8211156138fd576138fc6134c1565b5b602082029050602081019050919050565b600061392161391c846138e2565b613521565b9050808382526020820190506020840283018581111561394457613943613450565b5b835b8181101561396d57806139598882613820565b845260208401935050602081019050613946565b5050509392505050565b600082601f83011261398c5761398b613446565b5b813561399c84826020860161390e565b91505092915050565b600067ffffffffffffffff8211156139c0576139bf6134c1565b5b602082029050602081019050919050565b60006139e46139df846139a5565b613521565b90508083825260208201905060208402830185811115613a0757613a06613450565b5b835b81811015613a305780613a1c88826133f8565b845260208401935050602081019050613a09565b5050509392505050565b600082601f830112613a4f57613a4e613446565b5b8135613a5f8482602086016139d1565b91505092915050565b600067ffffffffffffffff821115613a8357613a826134c1565b5b602082029050602081019050919050565b6000613aa7613aa284613a68565b613521565b90508083825260208201905060208402830185811115613aca57613ac9613450565b5b835b81811015613b1157803567ffffffffffffffff811115613aef57613aee613446565b5b808601613afc89826135be565b85526020850194505050602081019050613acc565b5050509392505050565b600082601f830112613b3057613b2f613446565b5b8135613b40848260208601613a94565b91505092915050565b60008060008060808587031215613b6357613b626132e8565b5b600085013567ffffffffffffffff811115613b8157613b806132ed565b5b613b8d87828801613977565b945050602085013567ffffffffffffffff811115613bae57613bad6132ed565b5b613bba87828801613a3a565b935050604085013567ffffffffffffffff811115613bdb57613bda6132ed565b5b613be787828801613b1b565b9250506060613bf88782880161360d565b91505092959194509250565b613c0d816135ec565b82525050565b6000602082019050613c286000830184613c04565b92915050565b600080600080600060a08688031215613c4a57613c496132e8565b5b6000613c58888289016133f8565b9550506020613c6988828901613431565b9450506040613c7a88828901613431565b9350506060613c8b8882890161360d565b9250506080613c9c8882890161360d565b9150509295509295909350565b7f4e487b7100000000000000000000000000000000000000000000000000000000600052602160045260246000fd5b60088110613ce957613ce8613ca9565b5b50565b6000819050613cfa82613cd8565b919050565b6000613d0a82613cec565b9050919050565b613d1a81613cff565b82525050565b6000602082019050613d356000830184613d11565b92915050565b60008060408385031215613d5257613d516132e8565b5b6000613d60858286016133f8565b9250506020613d7185828601613820565b9150509250929050565b6000606082019050613d9060008301866133b7565b613d9d60208301856133b7565b613daa60408301846133b7565b949350505050565b60008060408385031215613dc957613dc86132e8565b5b6000613dd7858286016133f8565b9250506020613de885828601613431565b9150509250929050565b600080600080600060808688031215613e0e57613e0d6132e8565b5b6000613e1c888289016133f8565b9550506020613e2d88828901613431565b945050604086013567ffffffffffffffff811115613e4e57613e4d6132ed565b5b613e5a88828901613455565b9350935050606086013567ffffffffffffffff811115613e7d57613e7c6132ed565b5b613e89888289016135be565b9150509295509295909350565b60008060008060608587031215613eb057613eaf6132e8565b5b6000613ebe878288016133f8565b9450506020613ecf87828801613431565b935050604085013567ffffffffffffffff811115613ef057613eef6132ed565b5b613efc87828801613455565b925092505092959194509250565b600067ffffffffffffffff821115613f2557613f246134c1565b5b613f2e826134b0565b9050602081019050919050565b6000613f4e613f4984613f0a565b613521565b905082815260208101848484011115613f6a57613f696134ab565b5b613f7584828561356d565b509392505050565b600082601f830112613f9257613f91613446565b5b8135613fa2848260208601613f3b565b91505092915050565b60008060008060808587031215613fc557613fc46132e8565b5b600085013567ffffffffffffffff811115613fe357613fe26132ed565b5b613fef87828801613977565b945050602085013567ffffffffffffffff8111156140105761400f6132ed565b5b61401c87828801613a3a565b935050604085013567ffffffffffffffff81111561403d5761403c6132ed565b5b61404987828801613b1b565b925050606085013567ffffffffffffffff81111561406a576140696132ed565b5b61407687828801613f7d565b91505092959194509250565b60008060006060848603121561409b5761409a6132e8565b5b60006140a986828701613820565b93505060206140ba868287016133f8565b925050604084013567ffffffffffffffff8111156140db576140da6132ed565b5b6140e7868287016135be565b9150509250925092565b600080600080600060a0868803121561410d5761410c6132e8565b5b600061411b88828901613820565b955050602061412c88828901613820565b945050604086013567ffffffffffffffff81111561414d5761414c6132ed565b5b61415988828901613a3a565b935050606086013567ffffffffffffffff81111561417a576141796132ed565b5b61418688828901613a3a565b925050608086013567ffffffffffffffff8111156141a7576141a66132ed565b5b6141b3888289016135be565b9150509295509295909350565b60008083601f8401126141d6576141d5613446565b5b8235905067ffffffffffffffff8111156141f3576141f261344b565b5b60208301915083600182028301111561420f5761420e613450565b5b9250929050565b600080600080606085870312156142305761422f6132e8565b5b600061423e87828801613820565b945050602061424f878288016133f8565b935050604085013567ffffffffffffffff8111156142705761426f6132ed565b5b61427c878288016141c0565b925092505092959194509250565b600080604083850312156142a1576142a06132e8565b5b60006142af85828601613820565b92505060206142c0858286016133f8565b9150509250929050565b600080600080600060a086880312156142e6576142e56132e8565b5b60006142f488828901613820565b955050602061430588828901613820565b9450506040614316888289016133f8565b9350506060614327888289016133f8565b925050608086013567ffffffffffffffff811115614348576143476132ed565b5b614354888289016135be565b9150509295509295909350565b6000819050919050565b600061438661438161437c846137d7565b614361565b6137d7565b9050919050565b60006143988261436b565b9050919050565b60006143aa8261438d565b9050919050565b6143ba8161439f565b82525050565b60006020820190506143d560008301846143b1565b92915050565b600081905092915050565b60006143f283856143db565b93506143ff83858461356d565b82840190509392505050565b60006144188284866143e6565b91508190509392505050565b61442d8161340d565b82525050565b600060a0820190506144486000830188613c04565b61445560208301876133b7565b6144626040830186614424565b61446f6060830185613c04565b61447c6080830184613c04565b9695505050505050565b7f476f7665726e6f723a206f6e6c79476f7665726e616e63650000000000000000600082015250565b60006144bc601883613738565b91506144c782614486565b602082019050919050565b600060208201905081810360008301526144eb816144af565b9050919050565b7f4e487b7100000000000000000000000000000000000000000000000000000000600052602260045260246000fd5b6000600282049050600182168061453957607f821691505b60208210810361454c5761454b6144f2565b5b50919050565b7f476f7665726e6f723a2070726f706f73616c206e6f742073756363657373667560008201527f6c00000000000000000000000000000000000000000000000000000000000000602082015250565b60006145ae602183613738565b91506145b982614552565b604082019050919050565b600060208201905081810360008301526145dd816145a1565b9050919050565b60006060820190506145f96000830186613c04565b61460660208301856133b7565b6146136040830184614424565b949350505050565b7f476f7665726e6f723a20756e6b6e6f776e2070726f706f73616c206964000000600082015250565b6000614651601d83613738565b915061465c8261461b565b602082019050919050565b6000602082019050818103600083015261468081614644565b9050919050565b7f4e487b7100000000000000000000000000000000000000000000000000000000600052601160045260246000fd5b60006146c1826133ad565b91506146cc836133ad565b9250828210156146df576146de614687565b5b828203905092915050565b7f4e487b7100000000000000000000000000000000000000000000000000000000600052603260045260246000fd5b7f476f7665726e6f723a2070726f706f73657220766f7465732062656c6f77207060008201527f726f706f73616c207468726573686f6c64000000000000000000000000000000602082015250565b6000614775603183613738565b915061478082614719565b604082019050919050565b600060208201905081810360008301526147a481614768565b9050919050565b7f476f7665726e6f723a20696e76616c69642070726f706f73616c206c656e677460008201527f6800000000000000000000000000000000000000000000000000000000000000602082015250565b6000614807602183613738565b9150614812826147ab565b604082019050919050565b60006020820190508181036000830152614836816147fa565b9050919050565b7f476f7665726e6f723a20656d7074792070726f706f73616c0000000000000000600082015250565b6000614873601883613738565b915061487e8261483d565b602082019050919050565b600060208201905081810360008301526148a281614866565b9050919050565b7f476f7665726e6f723a2070726f706f73616c20616c726561647920657869737460008201527f7300000000000000000000000000000000000000000000000000000000000000602082015250565b6000614905602183613738565b9150614910826148a9565b604082019050919050565b60006020820190508181036000830152614934816148f8565b9050919050565b600067ffffffffffffffff82169050919050565b600061495a8261493b565b91506149658361493b565b92508267ffffffffffffffff0382111561498257614981614687565b5b828201905092915050565b614996816137f7565b82525050565b600081519050919050565b600082825260208201905092915050565b6000819050602082019050919050565b6149d1816137f7565b82525050565b60006149e383836149c8565b60208301905092915050565b6000602082019050919050565b6000614a078261499c565b614a1181856149a7565b9350614a1c836149b8565b8060005b83811015614a4d578151614a3488826149d7565b9750614a3f836149ef565b925050600181019050614a20565b5085935050505092915050565b600081519050919050565b600082825260208201905092915050565b6000819050602082019050919050565b614a8f816133ad565b82525050565b6000614aa18383614a86565b60208301905092915050565b6000602082019050919050565b6000614ac582614a5a565b614acf8185614a65565b9350614ada83614a76565b8060005b83811015614b0b578151614af28882614a95565b9750614afd83614aad565b925050600181019050614ade565b5085935050505092915050565b600081519050919050565b600082825260208201905092915050565b6000819050602082019050919050565b600082825260208201905092915050565b6000614b608261372d565b614b6a8185614b44565b9350614b7a818560208601613749565b614b83816134b0565b840191505092915050565b6000614b9a8383614b55565b905092915050565b6000602082019050919050565b6000614bba82614b18565b614bc48185614b23565b935083602082028501614bd685614b34565b8060005b85811015614c125784840389528151614bf38582614b8e565b9450614bfe83614ba2565b925060208a01995050600181019050614bda565b50829750879550505050505092915050565b600081519050919050565b600082825260208201905092915050565b6000819050602082019050919050565b600081519050919050565b600082825260208201905092915050565b6000614c7782614c50565b614c818185614c5b565b9350614c91818560208601613749565b614c9a816134b0565b840191505092915050565b6000614cb18383614c6c565b905092915050565b6000602082019050919050565b6000614cd182614c24565b614cdb8185614c2f565b935083602082028501614ced85614c40565b8060005b85811015614d295784840389528151614d0a8582614ca5565b9450614d1583614cb9565b925060208a01995050600181019050614cf1565b50829750879550505050505092915050565b6000614d56614d51614d4c8461493b565b614361565b6133ad565b9050919050565b614d6681614d3b565b82525050565b600061012082019050614d82600083018c6133b7565b614d8f602083018b61498d565b8181036040830152614da1818a6149fc565b90508181036060830152614db58189614aba565b90508181036080830152614dc98188614baf565b905081810360a0830152614ddd8187614cc6565b9050614dec60c0830186614d5d565b614df960e0830185614d5d565b818103610100830152614e0c818461377c565b90509a9950505050505050505050565b60006080820190508181036000830152614e3681876149fc565b90508181036020830152614e4a8186614aba565b90508181036040830152614e5e8185614cc6565b9050614e6d6060830184613c04565b95945050505050565b7f53616665436173743a2076616c756520646f65736e27742066697420696e203260008201527f3234206269747300000000000000000000000000000000000000000000000000602082015250565b6000614ed2602783613738565b9150614edd82614e76565b604082019050919050565b60006020820190508181036000830152614f0181614ec5565b9050919050565b7f53616665436173743a2076616c756520646f65736e27742066697420696e203360008201527f3220626974730000000000000000000000000000000000000000000000000000602082015250565b6000614f64602683613738565b9150614f6f82614f08565b604082019050919050565b60006020820190508181036000830152614f9381614f57565b9050919050565b7f476f7665726e6f723a20766f7465206e6f742063757272656e746c792061637460008201527f6976650000000000000000000000000000000000000000000000000000000000602082015250565b6000614ff6602383613738565b915061500182614f9a565b604082019050919050565b6000602082019050818103600083015261502581614fe9565b9050919050565b600060808201905061504160008301876133b7565b61504e6020830186614424565b61505b60408301856133b7565b818103606083015261506d818461377c565b905095945050505050565b600082825260208201905092915050565b600061509482614c50565b61509e8185615078565b93506150ae818560208601613749565b6150b7816134b0565b840191505092915050565b600060a0820190506150d760008301886133b7565b6150e46020830187614424565b6150f160408301866133b7565b8181036060830152615103818561377c565b905081810360808301526151178184615089565b90509695505050505050565b7f476f7665726e6f72566f74657351756f72756d4672616374696f6e3a2071756f60008201527f72756d4e756d657261746f72206f7665722071756f72756d44656e6f6d696e6160208201527f746f720000000000000000000000000000000000000000000000000000000000604082015250565b60006151a5604383613738565b91506151b082615123565b606082019050919050565b600060208201905081810360008301526151d481615198565b9050919050565b60006040820190506151f060008301856133b7565b6151fd60208301846133b7565b9392505050565b600061520f826133ad565b91507fffffffffffffffffffffffffffffffffffffffffffffffffffffffffffffffff820361524157615240614687565b5b600182019050919050565b600061525782614c50565b61526181856143db565b9350615271818560208601613749565b80840191505092915050565b6000615289828461524c565b915081905092915050565b600061529f826133ad565b91506152aa836133ad565b9250827fffffffffffffffffffffffffffffffffffffffffffffffffffffffffffffffff038211156152df576152de614687565b5b828201905092915050565b7f436865636b706f696e74733a20626c6f636b206e6f7420796574206d696e6564600082015250565b6000615320602083613738565b915061532b826152ea565b602082019050919050565b6000602082019050818103600083015261534f81615313565b9050919050565b7f53616665436173743a2076616c756520646f65736e27742066697420696e203660008201527f3420626974730000000000000000000000000000000000000000000000000000602082015250565b60006153b2602683613738565b91506153bd82615356565b604082019050919050565b600060208201905081810360008301526153e1816153a5565b9050919050565b60006040820190506153fd600083018561498d565b61540a60208301846133b7565b9392505050565b600081519050615420816133e1565b92915050565b60006020828403121561543c5761543b6132e8565b5b600061544a84828501615411565b91505092915050565b600061545e826133ad565b9150615469836133ad565b9250817fffffffffffffffffffffffffffffffffffffffffffffffffffffffffffffffff04831182151516156154a2576154a1614687565b5b828202905092915050565b7f4e487b7100000000000000000000000000000000000000000000000000000000600052601260045260246000fd5b60006154e7826133ad565b91506154f2836133ad565b925082615502576155016154ad565b5b828204905092915050565b7f436865636b706f696e743a20696e76616c6964206b6579000000000000000000600082015250565b6000615543601783613738565b915061554e8261550d565b602082019050919050565b6000602082019050818103600083015261557281615536565b9050919050565b600081905092915050565b7f1901000000000000000000000000000000000000000000000000000000000000600082015250565b60006155ba600283615579565b91506155c582615584565b600282019050919050565b6000819050919050565b6155eb6155e6826135ec565b6155d0565b82525050565b60006155fc826155ad565b915061560882856155da565b60208201915061561882846155da565b6020820191508190509392505050565b600060808201905061563d6000830187613c04565b61564a6020830186614424565b6156576040830185613c04565b6156646060830184613c04565b95945050505050565b7f45434453413a20696e76616c6964207369676e61747572650000000000000000600082015250565b60006156a3601883613738565b91506156ae8261566d565b602082019050919050565b600060208201905081810360008301526156d281615696565b9050919050565b7f45434453413a20696e76616c6964207369676e6174757265206c656e67746800600082015250565b600061570f601f83613738565b915061571a826156d9565b602082019050919050565b6000602082019050818103600083015261573e81615702565b9050919050565b7f45434453413a20696e76616c6964207369676e6174757265202773272076616c60008201527f7565000000000000000000000000000000000000000000000000000000000000602082015250565b60006157a1602283613738565b91506157ac82615745565b604082019050919050565b600060208201905081810360008301526157d081615794565b9050919050565b7f476f7665726e6f72566f74696e6753696d706c653a20766f746520616c72656160008201527f6479206361737400000000000000000000000000000000000000000000000000602082015250565b6000615833602783613738565b915061583e826157d7565b604082019050919050565b6000602082019050818103600083015261586281615826565b9050919050565b7f476f7665726e6f72566f74696e6753696d706c653a20696e76616c696420766160008201527f6c756520666f7220656e756d20566f7465547970650000000000000000000000602082015250565b60006158c5603583613738565b91506158d082615869565b604082019050919050565b600060208201905081810360008301526158f4816158b8565b9050919050565b600060a0820190506159106000830188613c04565b61591d6020830187613c04565b61592a6040830186613c04565b61593760608301856133b7565b615944608083018461498d565b969550505050505056fe476f7665726e6f723a2072656c617920726576657274656420776974686f7574206d657373616765476f7665726e6f723a2063616c6c20726576657274656420776974686f7574206d657373616765a264697066735822122076a27e4fc2ff7d652c0680044de9169a930bc680b0d90bb9c2f6ae40a7b7cc0a64736f6c634300080d0033",
  "immutableReferences": {
    "1840": [
      {
        "length": 32,
        "start": 6761
      },
      {
        "length": 32,
        "start": 9649
      },
      {
        "length": 32,
        "start": 9890
      }
    ],
    "4691": [
      {
        "length": 32,
        "start": 11123
      }
    ],
    "4693": [
      {
        "length": 32,
        "start": 11082
      }
    ],
    "4695": [
      {
        "length": 32,
        "start": 10996
      }
    ],
    "4697": [
      {
        "length": 32,
        "start": 11199
      }
    ],
    "4699": [
      {
        "length": 32,
        "start": 11232
      }
    ],
    "4701": [
      {
        "length": 32,
        "start": 11166
      }
    ]
  },
  "source": "// SPDX-License-Identifier: MIT\npragma solidity ^0.8.9;\n\nimport \"@openzeppelin/contracts/governance/Governor.sol\";\nimport \"@openzeppelin/contracts/governance/extensions/GovernorCountingSimple.sol\";\nimport \"@openzeppelin/contracts/governance/extensions/GovernorVotes.sol\";\nimport \"@openzeppelin/contracts/governance/extensions/GovernorVotesQuorumFraction.sol\";\n\ncontract DaoGovernor is\n    Governor,\n    GovernorCountingSimple,\n    GovernorVotes,\n    GovernorVotesQuorumFraction\n{\n    constructor(IVotes _token)\n        Governor(\"DaoGovernor\")\n        GovernorVotes(_token)\n        GovernorVotesQuorumFraction(4)\n    {}\n\n    function votingDelay() public pure override returns (uint256) {\n        return 1; // 1 block\n    }\n\n    function votingPeriod() public pure override returns (uint256) {\n        return 5; // 5 blocks\n    }\n\n    // overrides required by Solidity\n\n    function quorum(uint256 blockNumber)\n        public\n        view\n        override(IGovernor, GovernorVotesQuorumFraction)\n        returns (uint256)\n    {\n        return super.quorum(blockNumber);\n    }\n}\n",
  "sourcePath": "/Users/peepl/development/truffle-dao/contracts/DaoGovernor.sol",
  "compiler": {
    "name": "solc",
    "version": "0.8.13+commit.abaa5c0e.Emscripten.clang"
  },
  "schemaVersion": "3.4.7",
  "updatedAt": "2023-02-05T11:10:27.391Z",
  "devdoc": {
    "errors": {
      "Empty()": [
        {
          "details": "An operation (e.g. {front}) couldn't be completed due to the queue being empty."
        }
      ]
    },
    "kind": "dev",
    "methods": {
      "COUNTING_MODE()": {
        "details": "See {IGovernor-COUNTING_MODE}."
      },
      "castVote(uint256,uint8)": {
        "details": "See {IGovernor-castVote}."
      },
      "castVoteBySig(uint256,uint8,uint8,bytes32,bytes32)": {
        "details": "See {IGovernor-castVoteBySig}."
      },
      "castVoteWithReason(uint256,uint8,string)": {
        "details": "See {IGovernor-castVoteWithReason}."
      },
      "castVoteWithReasonAndParams(uint256,uint8,string,bytes)": {
        "details": "See {IGovernor-castVoteWithReasonAndParams}."
      },
      "castVoteWithReasonAndParamsBySig(uint256,uint8,string,bytes,uint8,bytes32,bytes32)": {
        "details": "See {IGovernor-castVoteWithReasonAndParamsBySig}."
      },
      "execute(address[],uint256[],bytes[],bytes32)": {
        "details": "See {IGovernor-execute}."
      },
      "getVotes(address,uint256)": {
        "details": "See {IGovernor-getVotes}."
      },
      "getVotesWithParams(address,uint256,bytes)": {
        "details": "See {IGovernor-getVotesWithParams}."
      },
      "hasVoted(uint256,address)": {
        "details": "See {IGovernor-hasVoted}."
      },
      "hashProposal(address[],uint256[],bytes[],bytes32)": {
        "details": "See {IGovernor-hashProposal}. The proposal id is produced by hashing the ABI encoded `targets` array, the `values` array, the `calldatas` array and the descriptionHash (bytes32 which itself is the keccak256 hash of the description string). This proposal id can be produced from the proposal data which is part of the {ProposalCreated} event. It can even be computed in advance, before the proposal is submitted. Note that the chainId and the governor address are not part of the proposal id computation. Consequently, the same proposal (with same operation and same description) will have the same id if submitted on multiple governors across multiple networks. This also means that in order to execute the same operation twice (on the same governor) the proposer will have to change the description in order to avoid proposal id conflicts."
      },
      "name()": {
        "details": "See {IGovernor-name}."
      },
      "onERC1155BatchReceived(address,address,uint256[],uint256[],bytes)": {
        "details": "See {IERC1155Receiver-onERC1155BatchReceived}."
      },
      "onERC1155Received(address,address,uint256,uint256,bytes)": {
        "details": "See {IERC1155Receiver-onERC1155Received}."
      },
      "onERC721Received(address,address,uint256,bytes)": {
        "details": "See {IERC721Receiver-onERC721Received}."
      },
      "proposalDeadline(uint256)": {
        "details": "See {IGovernor-proposalDeadline}."
      },
      "proposalSnapshot(uint256)": {
        "details": "See {IGovernor-proposalSnapshot}."
      },
      "proposalThreshold()": {
        "details": "Part of the Governor Bravo's interface: _\"The number of votes required in order for a voter to become a proposer\"_."
      },
      "proposalVotes(uint256)": {
        "details": "Accessor to the internal vote counts."
      },
      "propose(address[],uint256[],bytes[],string)": {
        "details": "See {IGovernor-propose}."
      },
      "quorumDenominator()": {
        "details": "Returns the quorum denominator. Defaults to 100, but may be overridden."
      },
      "quorumNumerator()": {
        "details": "Returns the current quorum numerator. See {quorumDenominator}."
      },
      "quorumNumerator(uint256)": {
        "details": "Returns the quorum numerator at a specific block number. See {quorumDenominator}."
      },
      "relay(address,uint256,bytes)": {
        "details": "Relays a transaction or function call to an arbitrary target. In cases where the governance executor is some contract other than the governor itself, like when using a timelock, this function can be invoked in a governance proposal to recover tokens or Ether that was sent to the governor contract by mistake. Note that if the executor is simply the governor itself, use of `relay` is redundant."
      },
      "state(uint256)": {
        "details": "See {IGovernor-state}."
      },
      "supportsInterface(bytes4)": {
        "details": "See {IERC165-supportsInterface}."
      },
      "updateQuorumNumerator(uint256)": {
        "details": "Changes the quorum numerator. Emits a {QuorumNumeratorUpdated} event. Requirements: - Must be called through a governance proposal. - New numerator must be smaller or equal to the denominator."
      },
      "version()": {
        "details": "See {IGovernor-version}."
      },
      "votingDelay()": {
        "details": "Delay, in number of block, between the proposal is created and the vote starts. This can be increassed to leave time for users to buy voting power, or delegate it, before the voting of a proposal starts."
      },
      "votingPeriod()": {
        "details": "Delay, in number of blocks, between the vote start and vote ends. NOTE: The {votingDelay} can delay the start of the vote. This must be considered when setting the voting duration compared to the voting delay."
      }
    },
    "version": 1
  },
  "userdoc": {
    "kind": "user",
    "methods": {
      "votingDelay()": {
        "notice": "module:user-config"
      },
      "votingPeriod()": {
        "notice": "module:user-config"
      }
    },
    "version": 1
  }
}